S00C0000554152542E73726563DC
S11300000C942A000C943C000C943C000C943C008E
S11300100C943C000C943C000C943C000C943C006C
S11300200C943C000C943C000C943C000C943C005C
S11300300C943C000C9426020C9412020C943C0088
S11300400C943C000C943C000C943C000C943C003C
S11300500C943C0011241FBECFE5D8E0DEBFCDBF19
S113006020E0A0E6B0E001C01D92A237B207E1F79C
S11300700E94D0010C945A020C940000442379F19C
S1130080413009F05FC0813079F028F08230A9F066
S11300908330E1F008952AB381E090E001C0880F35
S11300A06A95EAF7822B2CC027B381E090E001C067
S11300B0880F6A95EAF7822B2EC024B381E090E082
S11300C001C0880F6A95EAF7822B30C021B381E022
S11300D090E001C0880F6A95EAF7822B32C0813024
S11300E089F028F08230C9F0833011F108952AB3E1
S11300F081E090E001C0880F6A95EAF78095822339
S11301008ABB089527B381E090E001C0880F6A9507
S1130110EAF78095822387BB089524B381E090E0B9
S113012001C0880F6A95EAF78095822384BB0895FD
S113013021B381E090E001C0880F6A95EAF78095C9
S1130140822381BB0895442379F1413009F05FC0D3
S1130150813079F028F08230A9F08330E1F00895FD
S11301602BB381E090E001C0880F6A95EAF7822BF7
S11301702CC028B381E090E001C0880F6A95EAF7AB
S1130180822B2EC025B381E090E001C0880F6A95D0
S1130190EAF7822B30C022B381E090E001C0880FDF
S11301A06A95EAF7822B32C0813089F028F08230D8
S11301B0C9F0833011F108952BB381E090E001C0C0
S11301C0880F6A95EAF7809582238BBB089528B33C
S11301D081E090E001C0880F6A95EAF78095822358
S11301E088BB089525B381E090E001C0880F6A952B
S11301F0EAF78095822385BB089522B381E090E0DD
S113020001C0880F6A95EAF78095822382BB08951E
S1130210CF93C82F40E061E081E00E94A30040E05A
S113022062E081E00E94A30040E063E081E00E947C
S1130230A3008BB39C2F907F8F70892B8BBB41E0E5
S113024063E081E00E94A3008FE99FE00197F1F74A
S113025000C0000040E063E081E00E94A3002BB3F3
S113026030E1C39FC0011124922F9F70892B8BBB57
S113027041E063E081E00E94A3008FE99FE00197E1
S1130280F1F700C0000040E063E081E00E94A300B9
S11302908FE19EE40197F1F700C00000CF9108952B
S11302A041E061E081E00E943E0041E062E081E0E3
S11302B00E943E0041E063E081E00E943E0041E094
S11302C064E080E00E943E0041E065E080E00E943E
S11302D03E0041E066E080E00E943E0041E067E0CD
S11302E080E00E943E002FEF81EE94E02150804098
S11302F09040E1F700C0000083E30E94080182E31C
S11303000E94080188E20E9408018CE00E94080112
S113031081E00E94080186E00E94080182E00C94BA
S11303200801CF93C82F41E061E081E00E94A3005F
S113033040E062E081E00E94A30040E063E081E0ED
S11303400E94A3008C2F807F8BBB41E063E081E09F
S11303500E94A3008FE99FE00197F1F700C000001D
S113036040E063E081E00E94A300C295C07FCBBB64
S113037041E063E081E00E94A3008FE99FE00197E0
S1130380F1F700C0000040E063E081E00E94A300B8
S11303908FE19EE40197F1F700C00000CF9108952A
S11303A00E9450010E94E7010E940B020E940E026B
S11303B0C0E0D0E0082F10E0F801EC0FFD1F8081B1
S11303C00E9491012196CD30D105B1F7EFCF1CB831
S11303D080B5806880BD80B58F7B80BD80B58F7D02
S11303E080BD80B58F7E80BD80B5877F80BD80B5A0
S11303F0846080BD80B5826080BD559A579A539AB7
S1130400549A41E061E083E00E943E0040E060E0F5
S113041083E00C943E0087E689B908955F9BFECF84
S11304208CB108951F920F920FB60F9211248F93DF
S11304309F938CE290E090936300809362009F917D
S11304408F910F900FBE0F901F9018951F920F92CF
S11304500FB60F9211242F933F934F935F936F9393
S11304607F938F939F93AF93BF93CF93DF93EF9338
S1130470FF938CE290E09093610080936000C091C0
S11304806400D09165000E940E02FE010995FF915F
S1130490EF91DF91CF91BF91AF919F918F917F9118
S11304A06F915F914F913F912F910F900FBE0F90DD
S10B04B01F901895F894FFCF8A
S9030000FC
